{
  "contractName": "Buildstarter",
  "abi": [
    {
      "constant": true,
      "inputs": [],
      "name": "registrationFee",
      "outputs": [
        {
          "name": "",
          "type": "uint256"
        }
      ],
      "payable": false,
      "stateMutability": "view",
      "type": "function"
    },
    {
      "inputs": [],
      "payable": false,
      "stateMutability": "nonpayable",
      "type": "constructor"
    },
    {
      "payable": true,
      "stateMutability": "payable",
      "type": "fallback"
    },
    {
      "anonymous": false,
      "inputs": [
        {
          "indexed": true,
          "name": "id",
          "type": "uint256"
        },
        {
          "indexed": true,
          "name": "account",
          "type": "address"
        },
        {
          "indexed": false,
          "name": "fee",
          "type": "uint256"
        },
        {
          "indexed": false,
          "name": "goal",
          "type": "uint256"
        },
        {
          "indexed": false,
          "name": "endTimestamp",
          "type": "uint256"
        }
      ],
      "name": "Register",
      "type": "event"
    },
    {
      "anonymous": false,
      "inputs": [
        {
          "indexed": true,
          "name": "from",
          "type": "address"
        },
        {
          "indexed": true,
          "name": "to",
          "type": "address"
        },
        {
          "indexed": false,
          "name": "value",
          "type": "uint256"
        }
      ],
      "name": "Transfer",
      "type": "event"
    },
    {
      "anonymous": false,
      "inputs": [
        {
          "indexed": true,
          "name": "from",
          "type": "address"
        },
        {
          "indexed": false,
          "name": "value",
          "type": "uint256"
        },
        {
          "indexed": false,
          "name": "funding",
          "type": "uint256"
        }
      ],
      "name": "Funding",
      "type": "event"
    },
    {
      "constant": true,
      "inputs": [],
      "name": "isOperational",
      "outputs": [
        {
          "name": "",
          "type": "bool"
        }
      ],
      "payable": false,
      "stateMutability": "view",
      "type": "function"
    },
    {
      "constant": false,
      "inputs": [
        {
          "name": "mode",
          "type": "bool"
        }
      ],
      "name": "setOperatingStatus",
      "outputs": [],
      "payable": false,
      "stateMutability": "nonpayable",
      "type": "function"
    },
    {
      "constant": false,
      "inputs": [
        {
          "name": "mode",
          "type": "bool"
        }
      ],
      "name": "setTestingMode",
      "outputs": [],
      "payable": false,
      "stateMutability": "nonpayable",
      "type": "function"
    },
    {
      "constant": false,
      "inputs": [
        {
          "name": "fee",
          "type": "uint256"
        }
      ],
      "name": "setRegistrationFee",
      "outputs": [],
      "payable": false,
      "stateMutability": "nonpayable",
      "type": "function"
    },
    {
      "constant": true,
      "inputs": [],
      "name": "getRegistrationFee",
      "outputs": [
        {
          "name": "",
          "type": "uint256"
        }
      ],
      "payable": false,
      "stateMutability": "view",
      "type": "function"
    },
    {
      "constant": false,
      "inputs": [
        {
          "name": "id",
          "type": "uint256"
        },
        {
          "name": "goal",
          "type": "uint256"
        },
        {
          "name": "endTimestamp",
          "type": "uint256"
        }
      ],
      "name": "register",
      "outputs": [],
      "payable": true,
      "stateMutability": "payable",
      "type": "function"
    },
    {
      "constant": true,
      "inputs": [
        {
          "name": "id",
          "type": "uint256"
        }
      ],
      "name": "getFeature",
      "outputs": [
        {
          "name": "",
          "type": "address"
        },
        {
          "name": "",
          "type": "uint256"
        },
        {
          "name": "",
          "type": "uint256"
        },
        {
          "name": "",
          "type": "uint256"
        },
        {
          "name": "",
          "type": "uint256"
        },
        {
          "name": "",
          "type": "address[]"
        }
      ],
      "payable": false,
      "stateMutability": "view",
      "type": "function"
    },
    {
      "constant": false,
      "inputs": [
        {
          "name": "id",
          "type": "uint256"
        }
      ],
      "name": "fund",
      "outputs": [],
      "payable": true,
      "stateMutability": "payable",
      "type": "function"
    },
    {
      "constant": false,
      "inputs": [
        {
          "name": "id",
          "type": "uint256"
        }
      ],
      "name": "settle",
      "outputs": [],
      "payable": false,
      "stateMutability": "nonpayable",
      "type": "function"
    },
    {
      "constant": false,
      "inputs": [
        {
          "name": "id",
          "type": "uint256"
        }
      ],
      "name": "refund",
      "outputs": [],
      "payable": false,
      "stateMutability": "nonpayable",
      "type": "function"
    },
    {
      "constant": false,
      "inputs": [],
      "name": "donate",
      "outputs": [],
      "payable": true,
      "stateMutability": "payable",
      "type": "function"
    }
  ],
  "bytecode": "0x608060405260008060006101000a81548160ff0219169083151502179055506001600060016101000a81548160ff02191690831515021790555067026933a263d9a04060015534801561005157600080fd5b5033600060026101000a81548173ffffffffffffffffffffffffffffffffffffffff021916908373ffffffffffffffffffffffffffffffffffffffff160217905550611497806100a26000396000f3006080604052600436106100ba576000357c0100000000000000000000000000000000000000000000000000000000900463ffffffff1680630946e807146100c4578063110466ed146100ef57806314c44e091461011e578063278ecde114610149578063596d7a681461017657806363eaf399146101a55780638df8280014610276578063c320c727146102a3578063ca1d209d146102d0578063cd905dff146102f0578063ed88c68e1461031f578063faa5c56414610329575b6100c261035d565b005b3480156100d057600080fd5b506100d96103c8565b6040518082815260200191505060405180910390f35b3480156100fb57600080fd5b5061011c6004803603810190808035151590602001909291905050506103d2565b005b34801561012a57600080fd5b5061013361044b565b6040518082815260200191505060405180910390f35b34801561015557600080fd5b5061017460048036038101908080359060200190929190505050610451565b005b34801561018257600080fd5b506101a3600480360381019080803515159060200190929190505050610748565b005b3480156101b157600080fd5b506101d0600480360381019080803590602001909291905050506107c0565b604051808773ffffffffffffffffffffffffffffffffffffffff1673ffffffffffffffffffffffffffffffffffffffff16815260200186815260200185815260200184815260200183815260200180602001828103825283818151815260200191508051906020019060200280838360005b8381101561025d578082015181840152602081019050610242565b5050505090500197505050505050505060405180910390f35b34801561028257600080fd5b506102a16004803603810190808035906020019092919050505061098f565b005b3480156102af57600080fd5b506102ce60048036038101908080359060200190929190505050610bf1565b005b6102ee60048036038101908080359060200190929190505050610c82565b005b3480156102fc57600080fd5b50610305610fc8565b604051808215151515815260200191505060405180910390f35b61032761035d565b005b61035b600480360381019080803590602001909291908035906020019092919080359060200190929190505050610fde565b005b600060029054906101000a900473ffffffffffffffffffffffffffffffffffffffff1673ffffffffffffffffffffffffffffffffffffffff166108fc349081150290604051600060405180830381858888f193505050501580156103c5573d6000803e3d6000fd5b50565b6000600154905090565b600060029054906101000a900473ffffffffffffffffffffffffffffffffffffffff1673ffffffffffffffffffffffffffffffffffffffff163373ffffffffffffffffffffffffffffffffffffffff1614151561042e57600080fd5b80600060016101000a81548160ff02191690831515021790555050565b60015481565b60008060019054906101000a900460ff16151561046d57600080fd5b60008211151561047c57600080fd5b6002600083815260200190815260200160002060000160009054906101000a900460ff1615156104ab57600080fd5b600060026000848152602001908152602001600020600301541115156104d057600080fd5b6002600083815260200190815260200160002060010154600260008481526020019081526020016000206003015410151561050a57600080fd5b60006002600084815260200190815260200160002060050160003373ffffffffffffffffffffffffffffffffffffffff1673ffffffffffffffffffffffffffffffffffffffff1681526020019081526020016000205411151561056c57600080fd5b6000809054906101000a900460ff1615156105a6574260026000848152602001908152602001600020600201541015156105a557600080fd5b5b6002600083815260200190815260200160002060050160003373ffffffffffffffffffffffffffffffffffffffff1673ffffffffffffffffffffffffffffffffffffffff16815260200190815260200160002054905060006002600084815260200190815260200160002060050160003373ffffffffffffffffffffffffffffffffffffffff1673ffffffffffffffffffffffffffffffffffffffff1681526020019081526020016000208190555061067e81600260008581526020019081526020016000206003015461131190919063ffffffff16565b60026000848152602001908152602001600020600301819055503373ffffffffffffffffffffffffffffffffffffffff166108fc829081150290604051600060405180830381858888f193505050501580156106de573d6000803e3d6000fd5b503373ffffffffffffffffffffffffffffffffffffffff163073ffffffffffffffffffffffffffffffffffffffff167fddf252ad1be2c89b69c2b068fc378daa952ba7f163c4a11628f55a4df523b3ef836040518082815260200191505060405180910390a35050565b600060029054906101000a900473ffffffffffffffffffffffffffffffffffffffff1673ffffffffffffffffffffffffffffffffffffffff163373ffffffffffffffffffffffffffffffffffffffff161415156107a457600080fd5b806000806101000a81548160ff02191690831515021790555050565b600080600080600060606107d2611348565b6000881115156107e157600080fd5b6002600089815260200190815260200160002060000160009054906101000a900460ff16151561081057600080fd5b6002600089815260200190815260200160002060e060405190810160405290816000820160009054906101000a900460ff161515151581526020016000820160019054906101000a900473ffffffffffffffffffffffffffffffffffffffff1673ffffffffffffffffffffffffffffffffffffffff1673ffffffffffffffffffffffffffffffffffffffff168152602001600182015481526020016002820154815260200160038201548152602001600482015481526020016006820180548060200260200160405190810160405280929190818152602001828054801561094d57602002820191906000526020600020905b8160009054906101000a900473ffffffffffffffffffffffffffffffffffffffff1673ffffffffffffffffffffffffffffffffffffffff1681526020019060010190808311610903575b505050505081525050905080602001518160400151826060015183608001518460a001518560c001518090509650965096509650965096505091939550919395565b600060019054906101000a900460ff1615156109aa57600080fd5b6000811115156109b957600080fd5b6002600082815260200190815260200160002060000160009054906101000a900460ff1615156109e857600080fd5b6002600082815260200190815260200160002060010154600260008381526020019081526020016000206003015410151515610a2357600080fd5b6000809054906101000a900460ff161515610a5d57426002600083815260200190815260200160002060020154101515610a5c57600080fd5b5b60026000828152602001908152602001600020600301546002600083815260200190815260200160002060040181905550600060026000838152602001908152602001600020600301819055506002600082815260200190815260200160002060000160019054906101000a900473ffffffffffffffffffffffffffffffffffffffff1673ffffffffffffffffffffffffffffffffffffffff166108fc60026000848152602001908152602001600020600401549081150290604051600060405180830381858888f19350505050158015610b3c573d6000803e3d6000fd5b506002600082815260200190815260200160002060000160019054906101000a900473ffffffffffffffffffffffffffffffffffffffff1673ffffffffffffffffffffffffffffffffffffffff163073ffffffffffffffffffffffffffffffffffffffff167fddf252ad1be2c89b69c2b068fc378daa952ba7f163c4a11628f55a4df523b3ef60026000858152602001908152602001600020600401546040518082815260200191505060405180910390a350565b600060019054906101000a900460ff161515610c0c57600080fd5b600060029054906101000a900473ffffffffffffffffffffffffffffffffffffffff1673ffffffffffffffffffffffffffffffffffffffff163373ffffffffffffffffffffffffffffffffffffffff16141515610c6857600080fd5b60008110151515610c7857600080fd5b8060018190555050565b600060019054906101000a900460ff161515610c9d57600080fd5b600081111515610cac57600080fd5b6002600082815260200190815260200160002060000160009054906101000a900460ff161515610cdb57600080fd5b600034111515610cea57600080fd5b6000809054906101000a900460ff161515610d255742600260008381526020019081526020016000206002015410151515610d2457600080fd5b5b610d4e34600260008481526020019081526020016000206003015461132a90919063ffffffff16565b600260008381526020019081526020016000206003018190555060006002600083815260200190815260200160002060050160003373ffffffffffffffffffffffffffffffffffffffff1673ffffffffffffffffffffffffffffffffffffffff168152602001908152602001600020541115610e8657610e2a346002600084815260200190815260200160002060050160003373ffffffffffffffffffffffffffffffffffffffff1673ffffffffffffffffffffffffffffffffffffffff1681526020019081526020016000205461132a90919063ffffffff16565b6002600083815260200190815260200160002060050160003373ffffffffffffffffffffffffffffffffffffffff1673ffffffffffffffffffffffffffffffffffffffff16815260200190815260200160002081905550610f59565b346002600083815260200190815260200160002060050160003373ffffffffffffffffffffffffffffffffffffffff1673ffffffffffffffffffffffffffffffffffffffff16815260200190815260200160002081905550600260008281526020019081526020016000206006013390806001815401808255809150509060018203906000526020600020016000909192909190916101000a81548173ffffffffffffffffffffffffffffffffffffffff021916908373ffffffffffffffffffffffffffffffffffffffff160217905550505b3373ffffffffffffffffffffffffffffffffffffffff167f257d09f84eb389b34d24ffbd9fac3b5834de9d04c4d7546d170b4d88e0ceefd8346002600085815260200190815260200160002060030154604051808381526020018281526020019250505060405180910390a250565b60008060019054906101000a900460ff16905090565b600060019054906101000a900460ff161515610ff957600080fd5b60008311151561100857600080fd5b6002600084815260200190815260200160002060000160009054906101000a900460ff1615151561103857600080fd5b60008211151561104757600080fd5b600154341015151561105857600080fd5b6000809054906101000a900460ff16151561107c57428111151561107b57600080fd5b5b600060029054906101000a900473ffffffffffffffffffffffffffffffffffffffff1673ffffffffffffffffffffffffffffffffffffffff166108fc349081150290604051600060405180830381858888f193505050501580156110e4573d6000803e3d6000fd5b5060e0604051908101604052806001151581526020013373ffffffffffffffffffffffffffffffffffffffff168152602001838152602001828152602001600081526020016000815260200160006040519080825280602002602001820160405280156111605781602001602082028038833980820191505090505b508152506002600085815260200190815260200160002060008201518160000160006101000a81548160ff02191690831515021790555060208201518160000160016101000a81548173ffffffffffffffffffffffffffffffffffffffff021916908373ffffffffffffffffffffffffffffffffffffffff16021790555060408201518160010155606082015181600201556080820151816003015560a0820151816004015560c082015181600601908051906020019061122292919061139e565b509050503373ffffffffffffffffffffffffffffffffffffffff16837fba45042eb10d0d72ccf7e3348eb9a8645e893c23211c1fd8569600f86a653e7f34858560405180848152602001838152602001828152602001935050505060405180910390a3600060029054906101000a900473ffffffffffffffffffffffffffffffffffffffff1673ffffffffffffffffffffffffffffffffffffffff163373ffffffffffffffffffffffffffffffffffffffff167fddf252ad1be2c89b69c2b068fc378daa952ba7f163c4a11628f55a4df523b3ef346040518082815260200191505060405180910390a3505050565b600082821115151561131f57fe5b818303905092915050565b600080828401905083811015151561133e57fe5b8091505092915050565b60e060405190810160405280600015158152602001600073ffffffffffffffffffffffffffffffffffffffff16815260200160008152602001600081526020016000815260200160008152602001606081525090565b828054828255906000526020600020908101928215611417579160200282015b828111156114165782518260006101000a81548173ffffffffffffffffffffffffffffffffffffffff021916908373ffffffffffffffffffffffffffffffffffffffff160217905550916020019190600101906113be565b5b5090506114249190611428565b5090565b61146891905b8082111561146457600081816101000a81549073ffffffffffffffffffffffffffffffffffffffff02191690555060010161142e565b5090565b905600a165627a7a7230582000e192a4ea0644383e73b5225db19c0026eca38580b75253792ab207b14337e80029",
  "source": "pragma solidity ^0.4.2;\n\n/************************************************** */\n/* Buildstarter Smart Contract                 */\n/************************************************** */\ncontract Buildstarter {\n    using SafeMath for uint256;\n\n    bool private testingMode = false;\n    bool private operational = true;                                    // Blocks all state changes throughout the contract if false\n    address private contractOwner;                                      // Account used to deploy contract\n\n    uint256 private constant weiMultiplier = 10 ** uint256(18);  \n    uint256 public registrationFee = 173726833183400000;                // Approximately $100\n\n\n    struct Feature {\n        bool registered;\n        address creator;\n        uint256 goal;\n        uint256 endTimestamp;\n        uint256 funding;\n        uint256 payout;\n        mapping(address => uint256) amounts;\n        address[] funders;\n    }\n\n    mapping(uint256 => Feature) features; \n\n\n    event Register          // Fired when a new feature is registered\n                            (\n                                uint256 indexed id, \n                                address indexed account,\n                                uint256 fee,\n                                uint256 goal,\n                                uint256 endTimestamp\n                            );\n\n    event Transfer          // Fired when tokens are transferred from one account to another\n                            (\n                                address indexed from, \n                                address indexed to, \n                                uint256 value\n                            );\n\n    event Funding\n                            (\n                                address indexed from,\n                                uint256 value,\n                                uint256 funding\n                            );\n\n    /**\n    * @dev Modifier that requires the \"operational\" boolean variable to be \"true\"\n    *      This is used on all state changing functions to pause the contract in \n    *      the event there is an issue that needs to be fixed\n    */\n    modifier requireIsOperational() \n    {\n        require(operational);\n        _;\n    }\n\n    /**\n    * @dev Modifier that requires the \"ContractOwner\" account to be the function caller\n    */\n    modifier requireContractOwner()\n    {\n        require(msg.sender == contractOwner);\n        _;\n    }\n\n    /********************************************************************************************/\n    /*                                       CONSTRUCTOR                                        */\n    /********************************************************************************************/\n\n    /**\n    * @dev Contract constructor\n    *\n    */\n    constructor             ( \n                                \n                            ) \n                            public\n    {\n        contractOwner = msg.sender;\n    }    \n\n\n   /**\n    * @dev Get operating status of contract\n    *\n    * @return A bool that is the current operating status\n    */      \n    function isOperational() \n                            public \n                            view \n                            returns(bool) \n    {\n        return operational;\n    }\n\n   /**\n    * @dev Sets contract operations on/off\n    *\n    * When operational mode is disabled, all write transactions except for this one will fail\n    * @return A bool that is the new operational mode\n    */    \n    function setOperatingStatus\n                            (\n                                bool mode\n                            ) \n                            external\n                            requireContractOwner \n    {\n        operational = mode;\n    }\n\n    function setTestingMode\n                            (\n                                bool mode\n                            ) \n                            external\n                            requireContractOwner \n    {\n        testingMode = mode;\n    }\n\n    /**\n    * @dev Sets registration fee\n    */    \n    function setRegistrationFee\n                            (\n                                uint256 fee\n                            ) \n                            external\n                            requireIsOperational\n                            requireContractOwner \n    {\n        require(fee >= 0);\n        registrationFee = fee;\n    }\n\n    function getRegistrationFee\n                            (\n                            ) \n                            external\n                            view\n                            returns(uint256)\n    {\n        return registrationFee;\n    }\n\n    function register\n                            (   \n                                uint256 id,\n                                uint256 goal,\n                                uint256 endTimestamp\n                            )\n                            external\n                            payable\n                            requireIsOperational \n    {\n        require(id > 0);\n        require(!features[id].registered);\n        require(goal > 0);\n        require(msg.value >= registrationFee);\n        if (!testingMode) {\n            require(endTimestamp > now);        \n        }\n\n        contractOwner.transfer(msg.value);\n\n        features[id] = Feature({\n                                    registered: true,\n                                    creator: msg.sender,\n                                    goal: goal,\n                                    endTimestamp: endTimestamp,\n                                    funding: 0,\n                                    payout: 0,\n                                    funders: new address[](0)\n                              });\n\n        emit Register(id, msg.sender, msg.value, goal, endTimestamp);\n        emit Transfer(msg.sender, contractOwner, msg.value);\n    }\n\n\n    function getFeature\n                            (\n                                uint256 id\n                            )\n                            external\n                            view\n                            returns(address, uint256, uint256, uint256, uint256, address[])\n    {\n        require(id > 0);\n        require(features[id].registered);  \n\n        Feature memory feature = features[id];\n\n        return (feature.creator, feature.goal, feature.endTimestamp, feature.funding, feature.payout, feature.funders);     \n    }\n\n\n    function fund\n                            (\n                                uint256 id\n                            )\n                            external\n                            payable\n                            requireIsOperational\n    {\n        require(id > 0);\n        require(features[id].registered);\n        require(msg.value > 0);\n        if (!testingMode) {\n            require(features[id].endTimestamp >= now);\n        }\n\n        features[id].funding = features[id].funding.add(msg.value);\n        if (features[id].amounts[msg.sender] > 0) {\n            features[id].amounts[msg.sender] = features[id].amounts[msg.sender].add(msg.value);\n        } else {\n            features[id].amounts[msg.sender] = msg.value;\n            features[id].funders.push(msg.sender);\n        }\n\n        emit Funding(msg.sender, msg.value, features[id].funding);\n\n    }\n\n\n    function settle\n                            (\n                                uint256 id\n                            )\n                            external\n                            requireIsOperational\n    {\n        require(id > 0);\n        require(features[id].registered);\n        require(features[id].funding >= features[id].goal);\n        if (!testingMode) {\n            require(features[id].endTimestamp < now);\n        }\n\n        features[id].payout = features[id].funding;\n        features[id].funding = 0;\n        features[id].creator.transfer(features[id].payout);\n        emit Transfer(address(this), features[id].creator, features[id].payout);\n    }\n\n\n\n    function refund\n                            (\n                                uint256 id\n                            )\n                            external\n                            requireIsOperational\n    {\n        require(id > 0);\n        require(features[id].registered);\n        require(features[id].funding > 0);\n        require(features[id].funding < features[id].goal);\n        require(features[id].amounts[msg.sender] > 0);\n        if (!testingMode) {\n            require(features[id].endTimestamp < now);\n        }\n\n        uint256 refundAmount = features[id].amounts[msg.sender];\n        features[id].amounts[msg.sender] = 0;\n        features[id].funding = features[id].funding.sub(refundAmount);\n        msg.sender.transfer(refundAmount);\n        emit Transfer(address(this), msg.sender, refundAmount);\n\n    }\n\n    /**\n    * @dev Fallback function \n    *\n    */\n    function() \n                            external \n                            payable \n    {\n        donate();\n    }\n\n    /**\n    * @dev Donate funds\n    */\n    function donate\n                            (\n                            ) \n                            public \n                            payable \n    {\n        contractOwner.transfer(msg.value);\n    }\n\n\n}   \n\n/*\nLICENSE FOR SafeMath\n\nThe MIT License (MIT)\n\nCopyright (c) 2016 Smart Contract Solutions, Inc.\n\nPermission is hereby granted, free of charge, to any person obtaining\na copy of this software and associated documentation files (the\n\"Software\"), to deal in the Software without restriction, including\nwithout limitation the rights to use, copy, modify, merge, publish,\ndistribute, sublicense, and/or sell copies of the Software, and to\npermit persons to whom the Software is furnished to do so, subject to\nthe following conditions:\n\nThe above copyright notice and this permission notice shall be included\nin all copies or substantial portions of the Software.\n\nTHE SOFTWARE IS PROVIDED \"AS IS\", WITHOUT WARRANTY OF ANY KIND, EXPRESS\nOR IMPLIED, INCLUDING BUT NOT LIMITED TO THE WARRANTIES OF\nMERCHANTABILITY, FITNESS FOR A PARTICULAR PURPOSE AND NONINFRINGEMENT.\nIN NO EVENT SHALL THE AUTHORS OR COPYRIGHT HOLDERS BE LIABLE FOR ANY\nCLAIM, DAMAGES OR OTHER LIABILITY, WHETHER IN AN ACTION OF CONTRACT,\nTORT OR OTHERWISE, ARISING FROM, OUT OF OR IN CONNECTION WITH THE\nSOFTWARE OR THE USE OR OTHER DEALINGS IN THE SOFTWARE.\n*/\n\n\nlibrary SafeMath {\n/* Copyright (c) 2016 Smart Contract Solutions, Inc. */\n/* See License at end of file                        */\n\n    function mul(uint256 a, uint256 b) internal pure returns (uint256) {\n        if (a == 0) {\n        return 0;\n        }\n        uint256 c = a * b;\n        assert(c / a == b);\n        return c;\n    }\n\n    function div(uint256 a, uint256 b) internal pure returns (uint256) {\n        // assert(b > 0); // Solidity automatically throws when dividing by 0\n        uint256 c = a / b;\n        // assert(a == b * c + a % b); // There is no case in which this doesn't hold\n        return c;\n    }\n\n    function sub(uint256 a, uint256 b) internal pure returns (uint256) {\n        assert(b <= a);\n        return a - b;\n    }\n\n    function add(uint256 a, uint256 b) internal pure returns (uint256) {\n        uint256 c = a + b;\n        assert(c >= a);\n        return c;\n    }\n}\n",
  "sourcePath": "/Users/nik/Developer/dnn/contract/contracts/Buildstarter.sol",
  "compiler": {
    "name": "solc",
    "version": "0.4.23+commit.124ca40d.Emscripten.clang"
  },
  "schemaVersion": "2.0.0",
  "updatedAt": "2018-06-01T03:33:25.543Z"
}